:1000000009C00EC00DC00CC00BC00AC009C008C09A
:1000100007C006C011241FBECFE9CDBF12D088C0D3
:10002000EFCFB99AC198B89AC09887B3877E87BB3B
:100030000895B99A8FB583628FBD83B78B6083BFF4
:1000400008952FEB64ED81E0215060408040E1F79E
:1000500000C00000E6DFB39B5DC0B499FCCF5AC07E
:10006000943090F5813059F018F08230C9F0F8CF13
:10007000B99A46BF86B7869589BD832FF1CF66B7FB
:10008000615066BF66B7669569BD66B76A3008F4A9
:10009000852FE7EBFBE03197F1F700C00000E0CFE0
:1000A00066B76F5F66BF66B7669569BDC09A66B78B
:1000B000653618F0C0989F5F822FE7EBFBE0319721
:1000C000F1F700C00000CCCF813051F018F0823041
:1000D00051F1C6CF46BF86B7869589BD832FC0CF65
:1000E000872FB99AC09AFFEB64EDE1E0F1506040D0
:1000F000E040E1F700C00000B998C098FFE369E173
:10010000E1E0F1506040E040E1F700C000008150C4
:1001100041F70CC08EDF80E090E074E052E04EE1E9
:1001200031E020E09DCF822F922F9ACF852F98CF5C
:04013000F894FFCF71
:00000001FF
